{
  "_format": "hh-sol-artifact-1",
  "contractName": "Calculator",
  "sourceName": "contracts/Calculator.sol",
  "abi": [
    {
      "inputs": [
        {
          "internalType": "uint8",
          "name": "length",
          "type": "uint8"
        },
        {
          "internalType": "uint8",
          "name": "width",
          "type": "uint8"
        }
      ],
      "name": "rectangle",
      "outputs": [
        {
          "internalType": "uint256",
          "name": "",
          "type": "uint256"
        }
      ],
      "stateMutability": "pure",
      "type": "function"
    },
    {
      "inputs": [
        {
          "internalType": "uint256",
          "name": "side",
          "type": "uint256"
        }
      ],
      "name": "square",
      "outputs": [
        {
          "internalType": "uint256",
          "name": "",
          "type": "uint256"
        }
      ],
      "stateMutability": "pure",
      "type": "function"
    },
    {
      "inputs": [
        {
          "internalType": "uint8",
          "name": "base",
          "type": "uint8"
        },
        {
          "internalType": "uint8",
          "name": "height",
          "type": "uint8"
        }
      ],
      "name": "triangle",
      "outputs": [
        {
          "internalType": "uint256",
          "name": "",
          "type": "uint256"
        }
      ],
      "stateMutability": "pure",
      "type": "function"
    }
  ],
  "bytecode": "0x608060405234801561001057600080fd5b50610387806100206000396000f3fe608060405234801561001057600080fd5b50600436106100415760003560e01c806355ce9777146100465780637b29290914610076578063fcf034af146100a6575b600080fd5b610060600480360381019061005b9190610176565b6100d6565b60405161006d91906101cf565b60405180910390f35b610090600480360381019061008b9190610216565b6100f4565b60405161009d91906101cf565b60405180910390f35b6100c060048036038101906100bb9190610176565b61010e565b6040516100cd91906101cf565b60405180910390f35b60008082846100e59190610272565b60ff1690508091505092915050565b600080828361010391906102af565b905080915050919050565b6000806002838561011f9190610272565b6101299190610320565b60ff1690508091505092915050565b600080fd5b600060ff82169050919050565b6101538161013d565b811461015e57600080fd5b50565b6000813590506101708161014a565b92915050565b6000806040838503121561018d5761018c610138565b5b600061019b85828601610161565b92505060206101ac85828601610161565b9150509250929050565b6000819050919050565b6101c9816101b6565b82525050565b60006020820190506101e460008301846101c0565b92915050565b6101f3816101b6565b81146101fe57600080fd5b50565b600081359050610210816101ea565b92915050565b60006020828403121561022c5761022b610138565b5b600061023a84828501610201565b91505092915050565b7f4e487b7100000000000000000000000000000000000000000000000000000000600052601160045260246000fd5b600061027d8261013d565b91506102888361013d565b92508282026102968161013d565b91508082146102a8576102a7610243565b5b5092915050565b60006102ba826101b6565b91506102c5836101b6565b92508282026102d3816101b6565b915082820484148315176102ea576102e9610243565b5b5092915050565b7f4e487b7100000000000000000000000000000000000000000000000000000000600052601260045260246000fd5b600061032b8261013d565b91506103368361013d565b925082610346576103456102f1565b5b82820490509291505056fea26469706673582212201e78371e739f0f247f47cdc43e95498a19421b92c14ee8780113f8393469c36264736f6c63430008180033",
  "linkReferences": {},
  "deployedLinkReferences": {}
}