{
  "contracts/Calculator.sol": {
    "Calculator": {
      "abi": [
        {
          "inputs": [
            {
              "internalType": "uint8",
              "name": "length",
              "type": "uint8"
            },
            {
              "internalType": "uint8",
              "name": "width",
              "type": "uint8"
            }
          ],
          "name": "rectangle",
          "outputs": [
            {
              "internalType": "uint256",
              "name": "",
              "type": "uint256"
            }
          ],
          "stateMutability": "pure",
          "type": "function"
        },
        {
          "inputs": [
            {
              "internalType": "uint256",
              "name": "side",
              "type": "uint256"
            }
          ],
          "name": "square",
          "outputs": [
            {
              "internalType": "uint256",
              "name": "",
              "type": "uint256"
            }
          ],
          "stateMutability": "pure",
          "type": "function"
        },
        {
          "inputs": [
            {
              "internalType": "uint8",
              "name": "base",
              "type": "uint8"
            },
            {
              "internalType": "uint8",
              "name": "height",
              "type": "uint8"
            }
          ],
          "name": "triangle",
          "outputs": [
            {
              "internalType": "uint256",
              "name": "",
              "type": "uint256"
            }
          ],
          "stateMutability": "pure",
          "type": "function"
        }
      ],
      "evm": {
        "bytecode": {
          "linkReferences": {},
          "object": "608060405234801561001057600080fd5b50610387806100206000396000f3fe608060405234801561001057600080fd5b50600436106100415760003560e01c806355ce9777146100465780637b29290914610076578063fcf034af146100a6575b600080fd5b610060600480360381019061005b9190610176565b6100d6565b60405161006d91906101cf565b60405180910390f35b610090600480360381019061008b9190610216565b6100f4565b60405161009d91906101cf565b60405180910390f35b6100c060048036038101906100bb9190610176565b61010e565b6040516100cd91906101cf565b60405180910390f35b60008082846100e59190610272565b60ff1690508091505092915050565b600080828361010391906102af565b905080915050919050565b6000806002838561011f9190610272565b6101299190610320565b60ff1690508091505092915050565b600080fd5b600060ff82169050919050565b6101538161013d565b811461015e57600080fd5b50565b6000813590506101708161014a565b92915050565b6000806040838503121561018d5761018c610138565b5b600061019b85828601610161565b92505060206101ac85828601610161565b9150509250929050565b6000819050919050565b6101c9816101b6565b82525050565b60006020820190506101e460008301846101c0565b92915050565b6101f3816101b6565b81146101fe57600080fd5b50565b600081359050610210816101ea565b92915050565b60006020828403121561022c5761022b610138565b5b600061023a84828501610201565b91505092915050565b7f4e487b7100000000000000000000000000000000000000000000000000000000600052601160045260246000fd5b600061027d8261013d565b91506102888361013d565b92508282026102968161013d565b91508082146102a8576102a7610243565b5b5092915050565b60006102ba826101b6565b91506102c5836101b6565b92508282026102d3816101b6565b915082820484148315176102ea576102e9610243565b5b5092915050565b7f4e487b7100000000000000000000000000000000000000000000000000000000600052601260045260246000fd5b600061032b8261013d565b91506103368361013d565b925082610346576103456102f1565b5b82820490509291505056fea26469706673582212201e78371e739f0f247f47cdc43e95498a19421b92c14ee8780113f8393469c36264736f6c63430008180033",
          "opcodes": "PUSH1 0x80 PUSH1 0x40 MSTORE CALLVALUE DUP1 ISZERO PUSH2 0x10 JUMPI PUSH1 0x0 DUP1 REVERT JUMPDEST POP PUSH2 0x387 DUP1 PUSH2 0x20 PUSH1 0x0 CODECOPY PUSH1 0x0 RETURN INVALID PUSH1 0x80 PUSH1 0x40 MSTORE CALLVALUE DUP1 ISZERO PUSH2 0x10 JUMPI PUSH1 0x0 DUP1 REVERT JUMPDEST POP PUSH1 0x4 CALLDATASIZE LT PUSH2 0x41 JUMPI PUSH1 0x0 CALLDATALOAD PUSH1 0xE0 SHR DUP1 PUSH4 0x55CE9777 EQ PUSH2 0x46 JUMPI DUP1 PUSH4 0x7B292909 EQ PUSH2 0x76 JUMPI DUP1 PUSH4 0xFCF034AF EQ PUSH2 0xA6 JUMPI JUMPDEST PUSH1 0x0 DUP1 REVERT JUMPDEST PUSH2 0x60 PUSH1 0x4 DUP1 CALLDATASIZE SUB DUP2 ADD SWAP1 PUSH2 0x5B SWAP2 SWAP1 PUSH2 0x176 JUMP JUMPDEST PUSH2 0xD6 JUMP JUMPDEST PUSH1 0x40 MLOAD PUSH2 0x6D SWAP2 SWAP1 PUSH2 0x1CF JUMP JUMPDEST PUSH1 0x40 MLOAD DUP1 SWAP2 SUB SWAP1 RETURN JUMPDEST PUSH2 0x90 PUSH1 0x4 DUP1 CALLDATASIZE SUB DUP2 ADD SWAP1 PUSH2 0x8B SWAP2 SWAP1 PUSH2 0x216 JUMP JUMPDEST PUSH2 0xF4 JUMP JUMPDEST PUSH1 0x40 MLOAD PUSH2 0x9D SWAP2 SWAP1 PUSH2 0x1CF JUMP JUMPDEST PUSH1 0x40 MLOAD DUP1 SWAP2 SUB SWAP1 RETURN JUMPDEST PUSH2 0xC0 PUSH1 0x4 DUP1 CALLDATASIZE SUB DUP2 ADD SWAP1 PUSH2 0xBB SWAP2 SWAP1 PUSH2 0x176 JUMP JUMPDEST PUSH2 0x10E JUMP JUMPDEST PUSH1 0x40 MLOAD PUSH2 0xCD SWAP2 SWAP1 PUSH2 0x1CF JUMP JUMPDEST PUSH1 0x40 MLOAD DUP1 SWAP2 SUB SWAP1 RETURN JUMPDEST PUSH1 0x0 DUP1 DUP3 DUP5 PUSH2 0xE5 SWAP2 SWAP1 PUSH2 0x272 JUMP JUMPDEST PUSH1 0xFF AND SWAP1 POP DUP1 SWAP2 POP POP SWAP3 SWAP2 POP POP JUMP JUMPDEST PUSH1 0x0 DUP1 DUP3 DUP4 PUSH2 0x103 SWAP2 SWAP1 PUSH2 0x2AF JUMP JUMPDEST SWAP1 POP DUP1 SWAP2 POP POP SWAP2 SWAP1 POP JUMP JUMPDEST PUSH1 0x0 DUP1 PUSH1 0x2 DUP4 DUP6 PUSH2 0x11F SWAP2 SWAP1 PUSH2 0x272 JUMP JUMPDEST PUSH2 0x129 SWAP2 SWAP1 PUSH2 0x320 JUMP JUMPDEST PUSH1 0xFF AND SWAP1 POP DUP1 SWAP2 POP POP SWAP3 SWAP2 POP POP JUMP JUMPDEST PUSH1 0x0 DUP1 REVERT JUMPDEST PUSH1 0x0 PUSH1 0xFF DUP3 AND SWAP1 POP SWAP2 SWAP1 POP JUMP JUMPDEST PUSH2 0x153 DUP2 PUSH2 0x13D JUMP JUMPDEST DUP2 EQ PUSH2 0x15E JUMPI PUSH1 0x0 DUP1 REVERT JUMPDEST POP JUMP JUMPDEST PUSH1 0x0 DUP2 CALLDATALOAD SWAP1 POP PUSH2 0x170 DUP2 PUSH2 0x14A JUMP JUMPDEST SWAP3 SWAP2 POP POP JUMP JUMPDEST PUSH1 0x0 DUP1 PUSH1 0x40 DUP4 DUP6 SUB SLT ISZERO PUSH2 0x18D JUMPI PUSH2 0x18C PUSH2 0x138 JUMP JUMPDEST JUMPDEST PUSH1 0x0 PUSH2 0x19B DUP6 DUP3 DUP7 ADD PUSH2 0x161 JUMP JUMPDEST SWAP3 POP POP PUSH1 0x20 PUSH2 0x1AC DUP6 DUP3 DUP7 ADD PUSH2 0x161 JUMP JUMPDEST SWAP2 POP POP SWAP3 POP SWAP3 SWAP1 POP JUMP JUMPDEST PUSH1 0x0 DUP2 SWAP1 POP SWAP2 SWAP1 POP JUMP JUMPDEST PUSH2 0x1C9 DUP2 PUSH2 0x1B6 JUMP JUMPDEST DUP3 MSTORE POP POP JUMP JUMPDEST PUSH1 0x0 PUSH1 0x20 DUP3 ADD SWAP1 POP PUSH2 0x1E4 PUSH1 0x0 DUP4 ADD DUP5 PUSH2 0x1C0 JUMP JUMPDEST SWAP3 SWAP2 POP POP JUMP JUMPDEST PUSH2 0x1F3 DUP2 PUSH2 0x1B6 JUMP JUMPDEST DUP2 EQ PUSH2 0x1FE JUMPI PUSH1 0x0 DUP1 REVERT JUMPDEST POP JUMP JUMPDEST PUSH1 0x0 DUP2 CALLDATALOAD SWAP1 POP PUSH2 0x210 DUP2 PUSH2 0x1EA JUMP JUMPDEST SWAP3 SWAP2 POP POP JUMP JUMPDEST PUSH1 0x0 PUSH1 0x20 DUP3 DUP5 SUB SLT ISZERO PUSH2 0x22C JUMPI PUSH2 0x22B PUSH2 0x138 JUMP JUMPDEST JUMPDEST PUSH1 0x0 PUSH2 0x23A DUP5 DUP3 DUP6 ADD PUSH2 0x201 JUMP JUMPDEST SWAP2 POP POP SWAP3 SWAP2 POP POP JUMP JUMPDEST PUSH32 0x4E487B7100000000000000000000000000000000000000000000000000000000 PUSH1 0x0 MSTORE PUSH1 0x11 PUSH1 0x4 MSTORE PUSH1 0x24 PUSH1 0x0 REVERT JUMPDEST PUSH1 0x0 PUSH2 0x27D DUP3 PUSH2 0x13D JUMP JUMPDEST SWAP2 POP PUSH2 0x288 DUP4 PUSH2 0x13D JUMP JUMPDEST SWAP3 POP DUP3 DUP3 MUL PUSH2 0x296 DUP2 PUSH2 0x13D JUMP JUMPDEST SWAP2 POP DUP1 DUP3 EQ PUSH2 0x2A8 JUMPI PUSH2 0x2A7 PUSH2 0x243 JUMP JUMPDEST JUMPDEST POP SWAP3 SWAP2 POP POP JUMP JUMPDEST PUSH1 0x0 PUSH2 0x2BA DUP3 PUSH2 0x1B6 JUMP JUMPDEST SWAP2 POP PUSH2 0x2C5 DUP4 PUSH2 0x1B6 JUMP JUMPDEST SWAP3 POP DUP3 DUP3 MUL PUSH2 0x2D3 DUP2 PUSH2 0x1B6 JUMP JUMPDEST SWAP2 POP DUP3 DUP3 DIV DUP5 EQ DUP4 ISZERO OR PUSH2 0x2EA JUMPI PUSH2 0x2E9 PUSH2 0x243 JUMP JUMPDEST JUMPDEST POP SWAP3 SWAP2 POP POP JUMP JUMPDEST PUSH32 0x4E487B7100000000000000000000000000000000000000000000000000000000 PUSH1 0x0 MSTORE PUSH1 0x12 PUSH1 0x4 MSTORE PUSH1 0x24 PUSH1 0x0 REVERT JUMPDEST PUSH1 0x0 PUSH2 0x32B DUP3 PUSH2 0x13D JUMP JUMPDEST SWAP2 POP PUSH2 0x336 DUP4 PUSH2 0x13D JUMP JUMPDEST SWAP3 POP DUP3 PUSH2 0x346 JUMPI PUSH2 0x345 PUSH2 0x2F1 JUMP JUMPDEST JUMPDEST DUP3 DUP3 DIV SWAP1 POP SWAP3 SWAP2 POP POP JUMP INVALID LOG2 PUSH5 0x6970667358 0x22 SLT KECCAK256 0x1E PUSH25 0x371E739F0F247F47CDC43E95498A19421B92C14EE8780113F8 CODECOPY CALLVALUE PUSH10 0xC36264736F6C63430008 XOR STOP CALLER "
        },
        "methodIdentifiers": {
          "rectangle(uint8,uint8)": "55ce9777",
          "square(uint256)": "7b292909",
          "triangle(uint8,uint8)": "fcf034af"
        }
      }
    }
  }
}